:020000040800F2
:10000000A0C40020150300083F170008F7160008D9
:100010003D170008FD070008A11B000800000000B4
:100020000000000000000000000000005D02000869
:10003000FF07000800000000B1020008E5170008F3
:100040002F0300082F0300082F0300082F030008C8
:100050002F0300082F0300082F0300082F030008B8
:100060002F0300082F0300082F0300082F030008A8
:100070002F0300082F0300082F0300082F03000898
:100080002F0300082F0300082F0300082F03000888
:100090002F0300082F0300082F0300082F03000878
:1000A0002F0300082F0300082F0300082F03000868
:1000B0002F0300082F0300082F0300082F03000858
:1000C0002F0300082F0300082F0300082F03000848
:1000D0002F030008D51A0008191B0008251B00086B
:1000E0002F0300082F0300082F0300082F03000828
:1000F0002F0300082F0300082F0300082F03000818
:100100002F0300082F0300082F0300082F03000807
:100110002F0300082F0300082F0300082F030008F7
:100120002F0300082F0300082F0300082F030008E7
:100130002F0300082F0300082F0300082F030008D7
:100140002F0300082F0300082F0300082F030008C7
:100150002F0300082F0300082F0300082F030008B7
:100160002F0300082F0300082F0300082F030008A7
:100170002F0300082F0300082F03000800000000D1
:100180002F0300082F0300082F0300082F03000887
:100190002F0300082F0300082F0300082F03000877
:1001A0002F0300082F0300082F03000800F002F8B7
:1001B00000F044F80AA090E8000C82448344AAF1BD
:1001C0000107DA4501D100F039F8AFF2090EBAE8BB
:1001D0000F0013F0010F18BFFB1A43F0010318477B
:1001E0004858000068580000103A24BF78C878C109
:1001F000FAD8520724BF30C830C144BF04680C602D
:10020000704700000023002400250026103A28BF74
:1002100078C1FBD8520728BF30C148BF0B60704778
:10022000642900F00381732900F04E82002070479A
:100230001FB505F054FB1FBD10B510BD00F0B0FA9E
:100240001146FFF7F5FF02F037FB00F0CEFA03B4DA
:10025000FFF7F2FF03BC02F09BF900002A4B19687C
:100260000868B0E8F04F80F30988BFF36F8F4FF054
:10027000000080F311887047000000000648006805
:10028000006880F3088862B661B6BFF34F8FBFF392
:100290006F8F00DF00BF00BF08ED00E0DFF80C004B
:1002A000016841F470010160704700BF88ED00E013
:1002B000EFF30980BFF36F8F134B1A681EF0100F16
:1002C00008BF20ED108A20E9F04F106008B44FF00D
:1002D000500080F31188BFF34F8FBFF36F8F03F08F
:1002E000D1FF4FF0000080F3118808BC196808683E
:1002F000B0E8F04F1EF0100F08BFB0EC108A80F38A
:100300000988BFF36F8F70479C000020EFF30580D2
:10031000704700000948804709480047FEE7FEE7AC
:10032000FEE7FEE7FEE7FEE7FEE7FEE7FEE7FEE7A5
:1003300004480549054A064B70470000FD170008B0
:10034000AD010008A0BE0020A0C40020A0C0002075
:10035000A0C00020704700000FB4044910B503AAE4
:10036000029800F0B5F910BC5DF814FB8400002081
:100370002DE9F0410E460446002020622046E16847
:10038000884730B3252805D0D4E901219047206A59
:10039000401CF2E7E168204600278847050018D096
:1003A000A5F14100192802D820354FF400673246E4
:1003B000294620462760FFF733FF40B1012804D0CB
:1003C000F61D26F007060836D8E7361DD6E728467C
:1003D000DAE7206ABDE8F08170B50C460546012ACF
:1003E00005D02878800600D5EA69002302E00123C1
:1003F00005E05B1C934202D2E05C0028F9D1A869B9
:10040000E618C01AA861286A184428622846AFF383
:10041000008004E0D5E9012114F8010B9047B442B3
:10042000F8D32846AFF3008070BD00002DE9F041FD
:100430000646002410687529314616A510D0AFF382
:100440000080002802DA404213A507E031688A07DD
:1004500001D512A502E0490704D511A5012401E048
:10046000AFF3008000210A2206F1240709E0B0FB67
:10047000F2FCB0FBF2F302FB1C003030785418465B
:10048000491C0028F3D123462A463046BDE8F041F6
:1004900000F096B8000000002D0000002B000000C6
:1004A00020000000032A40F2308010F0030C00F01E
:1004B000158011F8013BBCF1020F624498BF11F89E
:1004C00001CB00F8013B38BF11F8013BA2F1040257
:1004D00098BF00F801CB38BF00F8013B11F00303CF
:1004E00000F02580083AC0F0088051F8043B083A33
:1004F00051F804CBA0E80810F5E7121D5CBF51F8D5
:10050000043B40F8043BAFF30080D20724BF11F84E
:10051000013B11F801CB48BF11F8012B24BF00F8B3
:10052000013B00F801CB48BF00F8012B704710B524
:10053000203AC0F00B80B1E81850203AA0E81850DB
:10054000B1E81850A0E81850BFF4F5AF5FEA027C9C
:1005500024BFB1E81850A0E8185044BF18C918C00B
:10056000BDE810405FEA827C24BF51F8043B40F8AC
:10057000043B08BF7047D20728BF31F8023B48BF91
:1005800011F8012B28BF20F8023B48BF00F8012BCF
:10059000704702F0FF0343EA032242EA024200F0FE
:1005A000ABB8704770477047704710B500F0C4F89B
:1005B000006810BD10B5044600F0BEF8046010BD20
:1005C0002DE9F0470D4699469246044600F124086D
:1005D0000168880604D5E06921F01001216000E07F
:1005E0000120A84201DD471B00E00027A1697A191C
:1005F00002EB0900081AA0612078C00602D4204648
:10060000AFF30080002608E0D4E901211AF80600C3
:100610009047206A401C761C20624E45F4DB20780F
:10062000C0060AD52046AFF3008006E0D4E90121D8
:1006300030209047206A401C2062381EA7F1010735
:10064000F4DC07E0D4E9012118F805009047206A9E
:10065000401C2062281EA5F10105F3DC2046AFF303
:1006600000802078000602D50220BDE8F087012036
:10067000FBE7000001694A1C02610878704700B579
:100680008FB0CDE901310021059105497944CDE9CB
:10069000031011466846FFF76BFE0FB000BD000067
:1006A000E5FFFFFF10B5436913B1AFF3008001E030
:1006B000FFF792FE012010BD127800F124010A70AC
:1006C00000224A700122EDE711684FF0FF32E9E79E
:1006D000074B70B50D467B44FFF7D1FF0446284613
:1006E00000F02EF810B14FF0FF3070BD204670BD05
:1006F000771F00004FF000020429C0F0128010F0B4
:10070000030C00F02380CCF1040CBCF1020F18BFE5
:1007100000F8012BA8BF20F8022BA1EB0C0100F080
:1007200015B85FEAC17C24BF00F8012B00F8012B4B
:1007300048BF00F8012B70470048704740BE0020BA
:10074000007B00F0800070474FF0000200B51346B8
:1007500094469646203922BFA0E80C50A0E80C50E1
:10076000B1F12001BFF4F7AF090728BFA0E80C5092
:1007700048BF0CC05DF804EB890028BF40F8042B8B
:1007800008BF704748BF20F8022B11F0804F18BFF8
:1007900000F8012B704700000048704740BE002061
:1007A0007546FFF7F9FFAE4605006946534620F04F
:1007B0000700854618B020B5FFF7BAFDBDE8204018
:1007C0004FF000064FF000074FF000084FF0000B0D
:1007D00021F00701AC46ACE8C009ACE8C009ACE8C0
:1007E000C009ACE8C0098D46704710B50446AFF3A8
:1007F00000802046BDE81040FFF729BDFEE77047A6
:1008000070B5B3F5804F05D06FF0704140F82210FD
:10081000002070BD50F82230084C2340D1E900453B
:1008200044EA05148D688E892D0245EA06458969DA
:100830002C430C431C4340F82240E9E70000F0CF72
:10084000F0B50C6850F82450194A1540D1E901233D
:10085000D1E903671A433E4332434E6932438E69FE
:100860003243CE6932430E6A32434E6A32438E6A55
:100870003243CE6A3243CE6B32430E6B32434E6B01
:1008800032432A43082B01D142F0400240F8242091
:100890004A6BB2F5801F08D10A6832B14FF48072FA
:1008A0000A6104490268114301600020F0BD0000A4
:1008B0008000E0FF00011000F0B500EB82025368F9
:1008C0008E8903F04044D1E9003543EA05138D6871
:1008D0002D0245EA06452B430E8A0D4D05EB0656C3
:1008E00033430E7D6F0107EB066633438E69334356
:1008F000234353600268D20207D54268098A22F472
:10090000700205EB0151114341600020F0BD000071
:100910000000F0FF2DE9F84FDFF8A091002209F167
:10092000040A0AF1040B4FF00F080BF1040E012624
:100930000B6896403340B34271D14C68022C01D011
:10094000122C11D1D40800EB84073D6A5407E40E41
:1009500008FA04FC25EA0C05D1F810C00CFA04FCD6
:100960004CEA050CC7F820C007685400032591F82D
:1009700004C0A5400CF0030CAF430CFA04FC4CEA95
:10098000070CC0F800C04F68012F05D0022F03D01C
:10099000112F01D0122F11D18768D1F80CC0AF43AD
:1009A0000CFA04FC4CEA070CC0F808C04768B743CF
:1009B0000E79C6F3001696403E434660C668AE43C5
:1009C0008D68A5403543C5604C68E4006FD53C4C4C
:1009D000256845F480452560246822F0030504F469
:1009E00080440094374C2E19D6F808789407250FC8
:1009F00008FA05F4A743344CA04201D100242EE0AC
:100A0000324CA04201D1012429E0314CA04201D155
:100A1000022424E02F4CA04202D103241FE046E030
:100A20002D4CA04201D1042419E02C4CA04201D14C
:100A3000052414E02A4CA04201D106240FE0294CE1
:100A4000A04201D107240AE0274CA04201D108248A
:100A500005E0264CA04201D1092400E00A24AC4064
:100A60003C43C6F80848D9F800404D464E689C43C0
:100A7000F60300D51C432C60DAF8004055464E685A
:100A80009C43B60300D51C432C60DBF800405D4658
:100A90004E689C43F60200D51C432C60DEF80040F3
:100AA00075464E689C43B60200D51C432C60521C10
:100AB000102AFFF43CAFBDE8F88F0000003C014075
:100AC000443802400030014000000240000402406F
:100AD00000080240000C02400010024000140240D6
:100AE00000180240001C0240002002400024024086
:100AF0000AB1816170470904FBE700000148006802
:100B0000704700007000002002480168491C016025
:100B100070470000700000200B4810B5016841F4D8
:100B200000710160016841F480610160016841F475
:100B300080710160032000F049F80F2000F006F8F2
:100B400000F015F8002010BD003C024010B504462E
:100B500000F096F94FF47A71B0FBF1F000F008FC68
:100B600000222146501E00F011F8002010BD08B5EB
:100B70000020009008BD00F01F02012191404009B3
:100B8000800000F1E020C0F800117047F0B40E4B77
:100B90001B68C3F30223C3F10704042C00D9042407
:100BA0001D1D072D01D2002300E0DB1E012606FAE1
:100BB00004F56D1E0D409D409E40761E164045EA90
:100BC0000601F0BC00F0BCBD0CED00E0064A00F0F0
:100BD000070110684FF6FF03184040EA012003495F
:100BE00008431060704700000CED00E00000FA05BB
:100BF0002DE9F8431D48016841F08051016000680B
:100C0000012700F080500090380490FAA0F0DFF83F
:100C10006080B0FA80F048F82070FFF76FFF04465C
:100C20004FF47A75134E04E0FFF768FF001BA842EB
:100C300013D87068C003F7D54FF4003090FAA0F0D5
:100C4000B0FA80F048F82070FFF758FF044607E03C
:100C5000FFF754FF001BA84202D90320BDE8F88328
:100C600070688003F4D50020F8E7000040380240A7
:100C700000000E42007000402DE9F05FDFF8F8A19F
:100C800004460F46DAF80000DFF8F08100F00F02AA
:100C9000C8B27A49814641F2883608F10808BA425A
:100CA00061D202468AF80020DAF8000000F00F0056
:100CB000B8427DD12078800707D5D8F80020A368F6
:100CC00022F0F0021A43C8F800202078C0072DD087
:100CD000606801281AD002281BD0032819D009689F
:100CE0008907002964DAD8F80010474621F003018B
:100CF0000143C8F80010FFF701FF054660680128AE
:100D00000FD0022818D003281CD027E009688903D7
:100D1000E7E709688901E4E7FFF7F0FE401BB0420E
:100D200058D83868C0F381000128F5D188E0FFF772
:100D3000E5FE401BB0424DD83868C0F38100022860
:100D4000F5D17DE03868FFF7D9FE401BB042F9D9F4
:100D500040E0FFF7D3FE401BB0423BD8386810F0AC
:100D60000C0FF6D16CE02078800707D5D8F800206A
:100D7000A36822F0F0021A43C8F800202078C007C8
:100D80004CD06068012828D0022829D0032827D019
:100D900009688907002949DAD8F8002022F00302FF
:100DA0000243C8F80020FFF7A9FE0546606800E08E
:100DB0003CE001281DD0022829D0032838D0B346B2
:100DC0004646306810F00C0F28D0FFF797FE411B05
:100DD0005945F6D90320BDE8F09F09688903D9E792
:100DE00009688901D6E7FFF789FE411B594502D9F9
:100DF000F0E7B34646463068C0F381000128F2D1DF
:100E00000CE0FFF77BFE411B594502D9E2E7B346F0
:100E100046463068C0F381000228F2D18AF800907B
:100E2000DAF8000000F00F00B84209D00120D2E744
:100E300044462068FFF762FE401BB042F9D9C9E77B
:100E40002078400707D5D8F80010E26821F4E05177
:100E50001143C8F800102078000708D5D8F8001012
:100E6000226921F4604141EAC201C8F800100F2054
:100E7000FFF76CFE0020AEE7003C02400038024065
:100E800010B500F043F808490968F02292FAA2F27E
:100E900001F0F001B2FA82F2D140044A515CC8403C
:100EA0000349086010BD000008380240F2580008ED
:100EB0000000002010B5FFF7E3FF074909684FF471
:100EC000E05292FAA2F201F4E051B2FA82F2D14079
:100ED000024A515CC84010BD08380240F258000870
:100EE00010B5FFF7CDFF074909684FF4604292FA49
:100EF000A2F201F46041B2FA82F2D140024A515C9E
:100F0000C84010BD08380240F2580008154810B516
:100F1000006810F00C01144823D0042921D00829BE
:100F20001FD1104A121F1168136801F03F01B0FB76
:100F3000F1F0116847F6C073194093FAA3F3B3FABE
:100F400083F3D940484311684FF4403292FAA2F239
:100F500001F44031B2FA82F2D140491C4900B0FBA1
:100F6000F1F010BD083802400024F4002DE9F84FDC
:100F700004460078DFF8FCA2BF4DC0074FF0000622
:100F800048D0DAF800105046C1F38101012908D099
:100F90000068C0F3810002280AD1281D00684002C1
:100FA00006D52868800335D56068002873D031E005
:100FB000DFF8C49209F1020989F80060FFF79EFD8D
:100FC000074641F2883804E0FFF798FDC11B414510
:100FD0007AD828688003F7D4207989F800006068FF
:100FE00060B1FFF78BFD074604E0FFF787FDC11BEB
:100FF0004145EDD828688003F7D50BE0FFF77EFD6B
:10100000074604E0FFF77AFDC11B4145E0D8286898
:101010008003F7D42078DFF86492800744D5DAF8AB
:101020000010504611F00C0F4FF0F80809D000687E
:10103000C0F3810002280BD18E48001F00684002D7
:1010400006D42868800714D5E068012823D110E071
:10105000E068D0B10120C9F80000FFF74FFD074656
:1010600004E0FFF74BFDC01B6428B1D82868800757
:10107000F7D5286898FAA8F22169B2FA82F220F02E
:10108000F8009140084328600EE0C9F80060FFF7BF
:1010900035FD074605E0EAE0FFF730FDC01B642898
:1010A00012D828688007F7D42078000725D5DFF804
:1010B000C4817348616908F16C0881B10121016044
:1010C000FFF71CFD074605E07EE0FFF717FDC01B9C
:1010D000642879D8D8F800008007F6D50DE00660BE
:1010E000FFF70CFD074604E0FFF708FDC01B64286E
:1010F0006AD8D8F800008007F6D42078400753D586
:101100005C483830016841F0805101600068DFF8C8
:10111000748100F080500090D8F8001041F4807184
:10112000C8F80010FFF7EAFC074604E0FFF7E6FC0A
:10113000C01B642848D8D8F80000C005F6D5DFF8F1
:1011400034B10BF1680B8BF80060FFF7D7FC074652
:1011500041F2883804E0FFF7D1FCC11B41457ED83D
:10116000DBF800008007F6D4207A8BF80000A06836
:1011700068B1FFF7C3FC074604E0FFF7BFFCC11BE3
:1011800041456CD8DBF800008007F6D50CE0FFF78E
:10119000B5FC074604E0FFF7B1FCC11B41455ED832
:1011A000DBF800008007F6D4A069E8B3DAF8001095
:1011B000C1F3810102295AD0022806D0C9F8606023
:1011C000FFF79CFC04464DE049E04F46C9F86060DB
:1011D000FFF794FC064604E0FFF790FC801B6428B0
:1011E0003DD828688001F7D4D4E90701084347F6C1
:1011F000C07191FAA1F1626AB1FA81F18A40A16AE3
:101200004FF0FF3303EB51014FF4403393FAA3F354
:10121000B3FA83F399400A4310434FF0706292FA95
:10122000A2F2B2FA82F200E01FE0E16A91400843C4
:101230001049091F086001203866FFF75FFC04466B
:1012400004E0FFF75BFC001B642808D828688001D5
:10125000F7D50AE0FFF752FC001B642802D90320EF
:10126000BDE8F88F28688001F4D40020F8E7012059
:10127000F6E700000838024000380240000047420C
:10128000800E47420070004070B515460E460400BF
:1012900003D094F8490010B107E0012070BD002090
:1012A00084F84800204600F01BF804F1080120688B
:1012B000FFF7C6FA3146A2682068FFF7FDFAD4E9C5
:1012C00001022946236BFFF79BFAA168206850F8BA
:1012D000212042F0010240F82120002070BD0000D2
:1012E0001A4800B5016887B041F00101016000684B
:1012F00000F00100059015480838016841F0080128
:101300000160016801F008010591016841F01001D8
:1013100001600068694600F0100005904EF2B3705D
:1013200000900220019001200290032003900C20E5
:1013300004900748FFF7EEFA4FF680700090694678
:101340000448FFF7E7FA07B000BD00003838024054
:10135000000C0240001002404FF0E0210428086910
:1013600003D020F004000861704740F00400FAE761
:1013700010B5401EB0F1807F01D3012010BD4FF0A9
:10138000E02460610F21601700F0DAF90020A0610D
:1013900007202061002010BD704790F83900704789
:1013A00038B5016804460868CA68C0F3000002F452
:1013B000807238B132B1086848680090E06B40F044
:1013C0000100E06308684A69C0F3400002F00102CE
:1013D00038B132B1086848680090E06B40F0040012
:1013E000E06308684A69C0F3800002F0010238B186
:1013F00032B1086848680090E06B40F00200E0639A
:1014000008684A69C0F3C00002F0010238B132B185
:10141000086848680090E06B40F00800E0630868E6
:10142000C968C0F3401001F0200118B111B1204685
:1014300000F00EFA20680168C068C1F3C01100F026
:10144000800019B110B1204600F010FB2168086837
:10145000CA68C0F3801002F04002012568B162B191
:10146000CA68204622F04002CA6094F83910322936
:101470000CD080F8395000F03DF9E06B002804D022
:1014800084F839502046FFF787FF38BD222180F8C5
:101490003910F0E770B5040004D094F83900002545
:1014A00010B106E0012070BD84F83850204600F0ED
:1014B00021F8022084F839002068C16821F4005125
:1014C000C160204600F018FA2068016921F49041BB
:1014D00001612068416921F02A0141612068C168E9
:1014E00041F40051C160E563012084F83900002017
:1014F00070BD0000F0B50168454B0220454A012649
:101500000727454C450287B0994227D1116841F021
:1015100001011160116801F0010105913D4914318B
:101520000A6842F010020A600968CDE9026001F021
:10153000100105910102CDE900106946049720468B
:10154000FFF7E8F9694620460095FFF7E3F9252003
:10155000FFF711FB0322114625202BE02D4BDFF86E
:10156000BCC01033614529D1116841F001011160FF
:10157000116801F001010591196841F40031196009
:101580001968CDE9026001F4003105910421CDE92B
:101590000010694604972046FFF7BCF90821009126
:1015A00069462046FFF7B6F92620FFF7E4FA032242
:1015B00011462620FFF7EAFA07B0F0BD184CA14209
:1015C000FAD1116841F002011160116801F00201C5
:1015D0000591196841F4802119601968CDE900501E
:1015E00001F48021CDE90471CDE902600D4C69461A
:1015F0002046FFF78FF9E114009169462046FFF776
:1016000089F92720FFF7B7FA032211462720D1E7EF
:101610000010014030380240000002400044004009
:10162000004800400004024090F83930012B01D0FE
:10163000122B2BD131B32AB390F83830012B25D09F
:10164000012380F8383081628285C2850022C2631E
:1016500090F83910122917D0222180F8391001682A
:10166000CB6843F48073CB6001684B6943F001039E
:101670004B6180F838200068C16841F02001C160EA
:1016800000207047012070473221E6E702207047B2
:1016900070B50068134988421AD1134841880A047A
:1016A00016D402464D0412784FF0000304D50A2ADE
:1016B0000DD141F4004113E00D2A0FD0C1F30D0507
:1016C0000A4E491C89B272554180C72900D943800E
:1016D000012205490648FFF7A7FF70BD41F480418C
:1016E0004180F5E7001001407E0000206C010020E1
:1016F000740200207047FEE70E4810B5016886B0FE
:1017000041F01001016000680B4C00F010000590E2
:10171000012000900190029003200390694620462A
:10172000FFF7F8F8012211462046FFF7E1F906B06D
:1017300010BD00003038024000100240FEE7704744
:101740000907090E002806DA00F00F0000F1E0207A
:1017500080F8141D704700F1E02080F800147047F5
:1017600070B51E4C92B00025266846F08056266063
:10177000246804F080541194194C266846F44046BD
:10178000266024680DF1240C04F4404411940124D3
:1017900000940194022406948CE80D006605CDE9BE
:1017A00007616846FFF7E2FB00B1FEE7FFF720FAAA
:1017B00000B1FEE70CA90F2081E831004FF4A050E2
:1017C0000F904FF48050109005210CA8FFF754FAA9
:1017D000002800D0FEE712B070BD00004038024083
:1017E0000070004010B503F021F9012801D002F08B
:1017F00011FEBDE81040FFF787B9000010480168EE
:1018000041F4700101600F48016841F0010101607D
:101810000C4A00210832116002680B4B1A4002602A
:10182000031D0A4A1A60026822F4802202600548F9
:101830000C3001600249580680390860704700008A
:1018400088ED00E000380240FFFFF6FE1030002473
:1018500010B590F83910222903D0322901D0022086
:1018600010BD8168B1F5805F11D001690029016860
:101870001FD0496801F07F03816A4A1C82620B70A5
:10188000C18D491E0904090CC18518D02FE00269D9
:10189000816A002A0268526805D0D2B20A80816A41
:1018A000491C8162ECE7C2F308020A80816A891C44
:1018B000F7E74A68816A4B1C83620A70E0E70168B7
:1018C000CA6822F02002CA6090F83910322910D07C
:1018D0000168CA6822F48072CA6001684A6922F00D
:1018E00001024A61012180F83910FFF7D1FE002082
:1018F00010BD1221F7E700002DE9F0410446006811
:101900000169E26821F440510A4302612068C1681C
:1019100049F20C6291432369A268E5691A4363693D
:101920002B431A430A43C2602068416921F4407284
:10193000A16911434161E06964263225B0F5004F89
:10194000484A494920681DD0884201D0904269D157
:10195000FFF7C6FA00EBC00101EB00106168B0466A
:101960008900B0FBF1F1B1FBF8F6FFF7B9FA00EB33
:10197000C00101EB001061688900B0FBF1F7FFF7CF
:10198000AFFA68E0884201D0904219D1FFF7A8FA77
:1019900000EBC00101EB00106168B0464900B0FBEC
:1019A000F1F1B1FBF8F6FFF79BFA00EBC00101EB98
:1019B000001061684900B0FBF1F7FFF791FA18E0F9
:1019C000FFF778FA00EBC00101EB00106168B04648
:1019D0004900B0FBF1F1B1FBF8F6FFF76BFA00EB51
:1019E000C00101EB001061684900B0FBF1F7FFF79F
:1019F00061FA00EBC00101EB001061684900B0FB27
:101A0000F1F1B1FBF8F06FF01801484307EB8000EB
:101A100005EB0011B1FBF8F0216866F31F10886038
:101A2000BDE8F081FFF746FA00EBC00101EB0010C2
:101A30006168B0468900B0FBF1F1B1FBF8F6FFF741
:101A400039FA00EBC00101EB001061688900B0FBBE
:101A5000F1F7FFF72FFA00EBC00101EB001061680E
:101A60008900CCE7001401400010014090F83910C3
:101A7000122903D0322901D0022070478168B1F5C4
:101A8000805F016A0BD04A1C0262026809785160CB
:101A9000C18C491E0904090CC1840ED017E00988C5
:101AA0000268C1F30801516001690029016A02D08E
:101AB000491C0162ECE7891CFBE70168CA6822F057
:101AC0008002CA600068C16841F04001C160002026
:101AD0007047000070B500240C4D0D48FFF760FC06
:101AE00002E0641CAC4204D80948FFF756FC012808
:101AF000F7D1002402E0641CAC4206D8012205495B
:101B00000348FFF791FD0028F5D170BDFFFF0100EC
:101B1000340200207E0000200148FFF741BC000095
:101B2000740200200148FFF73BBC0000B402002013
:101B30000B4910B5094AC1E9002000208860C8603F
:101B4000086188610C2048610846FFF7A3FCBDE8E6
:101B50001040012203490248FFF766BD00440040DF
:101B6000740200207E0000200B4910B5094AC1E92B
:101B7000002000208860C860086188610C204861EE
:101B80000846FFF787FCBDE81040012203490248E0
:101B9000FFF74ABD00480040B40200207E0000204C
:101BA000FEE703B401984100009850EAC12018BF35
:101BB00004204A0D18BF40F0010040F2FF72B2EB62
:101BC000515F08BF40F00200012808BF052002B0A5
:101BD000704700000000000010B52F499FED2C1B3E
:101BE0002DED020B84B0059820F000408842D8BF4C
:101BF0009DED040B2DDD2949884209D1049840B997
:101C00004FF00100FEF7D6FC00F0A2FC06B010BDBC
:101C100005DB9DED040B00F08FFC06B010BD68469F
:101C20009DED040B00F0A0F810F0030004BF9DED43
:101C3000021B9DED000B0CD001280ED09DED021B68
:101C40009DED000B022817D0012000F0DDFB06B04F
:101C500010BD00F0A5FA06B010BD9DED021B9DED74
:101C6000000B012000F0D0FB51EC100B03F03AF90F
:101C700006B041EC100B10BD00F092FA51EC100BC5
:101C800003F030F906B041EC100B10BD000000006D
:101C90000000000000000000FB21E93F0000F07F91
:101CA00010B52F499FED2C1B2DED020B84B005982C
:101CB00020F000408842DCBF00209DED040B32DDA7
:101CC0002849884209D1049840B94FF00100FEF735
:101CD00071FC00F03DFC06B010BD05DB9DED040B72
:101CE00000F02AFC06B010BD68469DED040B00F024
:101CF0003BF810F0030011D0012818D09DED021B15
:101D00009DED000B02281AD000F04AFA51EC100B9E
:101D100003F0E8F806B041EC100B10BD9DED021B7E
:101D20009DED000B012000F06FFB06B010BD9DED96
:101D3000021B9DED000B00F033FA06B010BD012030
:101D400000F062FB51EC100B03F0CCF806B041EC54
:101D5000100B10BD0000000000000000000000009B
:101D6000FB21E93F0000F07F2DE9F14F04462DED06
:101D7000020B2DED088B8AB09FEDE70B80ED020B77
:101D8000139EE74826F0004585420ADC9DED120BC4
:101D9000002084ED000B0AB0BDEC088B03B0BDE859
:101DA000F08FE0489FEDE0AB9FEDE1BBA84247DD3F
:101DB000E14F9FEDE39B9FEDE48B9DED120B53EC08
:101DC0001A2B51EC100B002E1CDD03F02DFC41EC06
:101DD000100BBD4208D053EC1B2B51EC100B03F041
:101DE00023FCC4E900010BE053EC192B51EC100B60
:101DF00003F01AFC53EC182B03F016FCC4E90001A5
:101E00000120C8E703F0ACF841EC100BBD4208D04C
:101E100053EC1B2B51EC100B03F0A2F8C4E90001AA
:101E20000BE053EC192B51EC100B03F099F853EC29
:101E3000182B03F095F8C4E900014FF0FF30AAE732
:101E4000C348A84279DB9DED120B51EC100B00F05A
:101E5000F3FB41EC180B9FEDC00B53EC102B03F080
:101E6000D9FA9FEDBF1B53EC112B03F079F803F067
:101E700077FA074603F0A3FA41EC190B53EC1A2B3F
:101E800003F0C8FA53EC182B03F0C2FB41EC180B1B
:101E900053EC1B2B51EC190B03F0BCFADFF8C8A272
:101EA00041EC100B4FEA15580125FA4453EC102B66
:101EB00051EC180B03F0B8FB032DC4E900013DD031
:101EC000C1F30A5005EB4511A8EB0000113981421E
:101ED00034DA0AEB051BB0EE48AA9BED000BF0EEDE
:101EE00068AA53EC102B51EC190B03F093FA41EC58
:101EF0001B0B51EC1A0B53EC1B2B03F095FB41EC25
:101F0000180B51EC1A0B53EC182B03F08DFB53EC10
:101F10001B2B03F089FB9BED020B41EC1A0B53ECDE
:101F2000102B51EC190B03F075FA53EC1A2B03F03C
:101F30007BFB41EC100B6D1CB8E70EE0002EA8BF38
:101F40003846BFF628AF94ED000B51EC100B02F0B1
:101F5000C9FFC4E9000178421DE7C6F3130040F44D
:101F6000801EC6F30A50A0F2F530471100F01F059D
:101F7000C5F12000DDF848B00890002006900790D9
:101F80000520EC467949002D07EB0002794408BF93
:101F900051F8221009D051F8223001EB8201AB40F8
:101FA0004A68089922FA01F11943A1FB0E26A1FB08
:101FB0000B131A449A4234BF0123002303EB060893
:101FC0000CEB8003D3E901A60E448E4234BF0121FD
:101FD000002192448A4411B1924502D903E092450E
:101FE00001D2012100E00021C3E901A641444CF8DF
:101FF0002010011EA0F10100C4DC029800F1005085
:10200000850F0298DDE903678000DDF8148003F096
:10201000D6F941EC1A0B304603F0E8F99FED541B5A
:1020200053EC112B03F0F6F941EC1B0B384603F08F
:10203000DDF99FED511B53EC112B03F0EBF941EC53
:10204000180B404603F0D2F99FED4D1B53EC112BBA
:1020500003F0E0F941EC190B51EC180B53EC192B80
:1020600002F07EFF53EC1B2B02F07AFF53EC1A2B8D
:1020700002F076FFCDE90801002008909DED080BE5
:1020800053EC1A2B51EC100B03F0CEFA53EC1B2B34
:1020900003F0CAFA53EC182B03F0C6FA53EC192BD1
:1020A00003F0B6FA9FED381B53EC112B03F0B2F995
:1020B0009FED370B41EC180B53EC102B9DED080BEB
:1020C00051EC100B03F0A6F953EC182B02F048FF6B
:1020D0009FED310B41EC180B53EC102B9DED080BD1
:1020E00051EC100B03F096F953EC182B02F038FF6B
:1020F00041EC100B139810F0004F06D06D4251ECDC
:10210000100B02F0EFFE41EC100B284684ED000BA3
:1021100041E6000000000000000000000000000098
:10212000FB21E93F7CD9024000004054FB21F93FEC
:102130003163621A61B4D03DFB21F93F0000000019
:102140000000601A61B4D03D7370032E8A19A33B5E
:10215000FB2139410000000083C8C96D305FE43FB6
:10216000000000000000E03F8A3A0000D83900007B
:10217000000000000000103E000000000000103CC5
:10218000000000000000103A182D4454FB21F93DD6
:102190003326A611460B113C00000054FB21F93DEB
:1021A00010B52DED040B2DED088B82B0B0EE419AE9
:1021B000F0EE619A0B9820F000449FED4BABB4F128
:1021C000795F11DA9DED0A0B51EC100B03F0C8F8A2
:1021D000002801BFB0EE4A0AF0EE6A0A02B0BDEC78
:1021E000088B04BF04B010BD9DED0A0B53EC102BFF
:1021F00051EC100B03F00EF941EC180B3C48062192
:10220000B0EE480AF0EE680A784400F081F853EC2A
:10221000182B51EC100B03F0FDF89DED0A0B41EC6F
:102220001B0B53EC192B51EC100B03F0F3F841ECA2
:10223000190B53EC1B2B51EC180B03F0EBF853EC80
:10224000192B03F0F1F99FED2C0B41EC190B53EC1A
:10225000102B51EC180B03F0DDF841EC100B284863
:10226000844210DA53EC192B51EC100B03F0DCF91B
:1022700053EC1A2B03F0CCF941EC100B02B0BDEC7F
:10228000088B04B010BD1F48A042BCBF9FED1E1BB1
:102290008DED001B06DBA4F50010019000200090DE
:1022A0009DED001B51EC100B53EC112B03F0BCF90E
:1022B0009DED000B41EC180B53EC102B51EC1A0B5D
:1022C00003F0B2F941EC1A0B53EC192B51EC180B3B
:1022D00003F0AAF953EC1A2B03F09AF941EC100B16
:1022E000CCE7000000000000000000000000F03F0C
:1022F000FC36000000000000000000000000E03F8D
:102300003333D33F0000E93F000000000000D23F1C
:1023100070B504462DED028B4D1E00EBC500B0EEEE
:10232000408AF0EE608A90ED000B35F0060017D081
:1023300053EC182B51EC100B03F06CF841EC100B24
:102340006D1E04EBC50090ED001B51EC100B53EC1F
:10235000112B02F005FE41EC100B35F00600E7D121
:10236000022D36D0042D1CD0062D1CBFBDEC028BD7
:1023700070BD53EC182B51EC100B03F04BF894ED9F
:102380000A1B53EC112B02F0EBFD53EC182B03F05E
:1023900041F894ED081B53EC112B02F0E1FD41ECE8
:1023A000100B53EC182B51EC100B03F033F894ED99
:1023B000061B53EC112B02F0D3FD53EC182B03F04A
:1023C00029F894ED040B53EC102B02F0C9FD41ECFD
:1023D000100B53EC182B51EC100B03F01BF894ED81
:1023E000021B53EC112B02F0BBFD53EC182B03F036
:1023F00011F894ED001B53EC112B02F0B1FDBDEC74
:10240000028B41EC100B70BD31B504462DED040B71
:102410002DED0A8BB0EE41BAF0EE61BA0B989DED4E
:102420000A0B20F00040B0F1795F0DDA51EC100B8F
:10243000FFF7B7FB042808BF00F09AF89DED0A0BE0
:10244000BDEC0A8B05B030BD53EC102B51EC100BDA
:1024500002F0E0FF41EC180B9DED0A0B53EC182B3A
:1024600051EC100B02F0D6FF41EC190B2C48B0EEEA
:10247000480AF0EE680A05217844FFF749FF9FED0E
:102480002ACBB0EE40AAF0EE60AA9CB353EC1C2B12
:1024900051EC190B02F0BEFF41EC1C0B53EC1A2B54
:1024A00051EC190B02F0B6FF9FED210B41EC190B1B
:1024B00053EC102B51EC1B0B02F0ACFF53EC192B1F
:1024C00003F0B2F853EC182B02F0A4FF53EC1B2BD3
:1024D00003F0AAF853EC1C2B03F0A6F89DED0A1BA1
:1024E00053EC112B03F094F8BDEC0A8B05B041ECD2
:1024F000100B30BDFFE753EC1A2B51EC180B02F018
:1025000089FF53EC1C2B02F02BFD53EC192B02F02E
:1025100081FF9DED0A1B53EC112B02F021FDE3E737
:102520008435000000000000495555555555C5BF7C
:10253000000000000000E03F10B553EC102B51EC00
:10254000100B02F00DFD41EC100B10BD000000005F
:102550009FED050B10B553EC102B51EC100B02F056
:10256000A7FD41EC100B10BD0000000000000000B2
:102570009FED050B10B553EC102B51EC100B02F036
:1025800049FF41EC100B10BD0000000000000010DE
:102590007047000010B504460420FEF7DDFE0A482F
:1025A0004FF47A7114FB01F10122446002804FF074
:1025B000E020026942F0020202614161016941F0DA
:1025C0000101016110BD00007400002070B50446D7
:1025D00002F02CFA01280CD0094D2888844203D33C
:1025E000B4FBF0F001F09CFC2888B4FBF0F100FB98
:1025F00011444FF47A706043BDE8704000F002B8B7
:102600007400002070B54FF0E02500216C69094A84
:10261000AB6952685043AA699A42FCD002D2A3EB3C
:10262000020302E0A4EB020633441944134681423C
:10263000F1D370BD7400002082B0CDE9000121F01B
:10264000004001909DED000B02B051EC100B704763
:1026500003490A685206FCD5C2B24A6070470000BE
:10266000001001402DE9F04FDFF8049107462DEDF1
:10267000048BA9F1030A0E469AF8000081B04004C9
:1026800000F1C040B9F80010934601800120FFF727
:10269000B9FF9AF80100B9F80210400400F1C040F7
:1026A00001800120FFF7AEFF3248008860F30F047D
:1026B0000120FFF7A7FF3048008860F30F050120D5
:1026C000FFF7A0FFA9F1060999F80000400400F106
:1026D000C04000889FED298A60F31F44201400EE5B
:1026E000100ADFED278A0090B8EEC00A012020EE24
:1026F000080AC0EE289AFFF785FF99F80100400408
:1027000000F1C040008860F31F454FEA254A00EE03
:1027100010AA0120B8EEC00A20EE080A80EE289A1E
:10272000FFF770FF99F80200400400F1C0400088F4
:102730003C8060F31F484FEA284100EE101A0098D1
:102740007880B8EEC00AC7ED029A3580A6F802A0DC
:1027500060EE080A86ED029AABF8021080EEA80A35
:102760008BED020A01B0BDEC048BBDE8F08F0000D8
:102770003200002000002260000062600000B443CC
:1027800000FF7F471CB507490120CDE90001002368
:10279000802205A1074802F01DF9BDE81C4001F0A8
:1027A0001FBD00009000002073746172745F74613B
:1027B000736B0000E1330008F0B5A1B04FF020408A
:1027C00001903848029038480024016841F0020125
:1027D0000160016801F002010091016841F01001FF
:1027E0000160016801F010010091016841F00801E9
:1027F0000160006800F0080000902B480830016874
:1028000041F0010101600068022500F00100009024
:102810008020CDE91C051EAA03260C2782E8D000E3
:102820001CA92248FEF776F84FF6FB70CDE91C058F
:102830001EAA1CA982E8D0001D48FEF76BF84FF6CF
:10284000F870CDE91C051EAA1CA982E8D000194821
:10285000FEF760F807201590012016900620CDE9BC
:10286000170419940820CDE904501A941B941020E1
:10287000CDE906040002CDE90A40039408940C94C3
:102880000D9400020E94CDE90F401194002215A979
:1028900001A81294FEF7F8FC002800D0FEE721B052
:1028A000F0BD0000040100A03038024000040240E6
:1028B000000C02400010024010B5FEF72DF908236D
:1028C000022210214FF4B470FEF74AFF0948006855
:1028D0008047B420FFF75EFE4FF4E1342046FFF757
:1028E00027F92046FFF740F9FEF706FFFFF74AFFFA
:1028F000002010BD8C0000202DE9F05FDFF8108172
:1029000007462DED048B93460E4698F80000DFF83D
:1029100004A10AEB4040008860F30F040120FFF798
:1029200071FE98F801000AEB4040008860F30F0543
:102930000120FFF767FE98F80000400400F1C04056
:102940000088DFED359A60F31F444FEA244A00EE19
:1029500010AA9FED329A0120B8EEC00A20EE290A93
:10296000C0EE098AFFF74EFE98F80100400400F11E
:10297000C040008860F31F454FEA254800EE108AEA
:102980000120B8EEC00A20EE290A80EE098AFFF77E
:1029900039FEB5EEC08AF1EE10FA15D11C490020BF
:1029A000C91C8978490401F1C04108800120FFF762
:1029B00029FE17490020C91C194A897802EB4141B8
:1029C00008800120FFF71EFE11488078400400F1C6
:1029D000C04000883C8060F31F494FEA294000EE68
:1029E000100AA7F802A0C7ED028AB8EEC00A358027
:1029F000A6F8028086ED028A60EE290AABF8020092
:102A000080EE890A8BED020ABDEC048BBDE8F09FD5
:102A10002C0000200000FE5F0000B44300FF7F4751
:102A2000000002602DE9F041184E0F460446F5689B
:102A30003068001D01F0EAF838B9306890F82C10C1
:102A400001208840316981433161601C07D137B171
:102A50003168BDE8F0410E48091D01F00FB930683A
:102A60002C44AC424460316805D2B06BBDE8F04103
:102A7000091D01F0EBB8706B091D01F0E7F8B06AB1
:102A8000844200D2B462BDE8F08100009C000020C6
:102A9000040600202DE9F041054601F0FBF82D4E1B
:102AA000B068401CB06030682B4F10B1706930B313
:102AB0002BE03560B068012827D1002404EB8400A6
:102AC00007EB800001F0B4F8641C202CF6D32348F7
:102AD00001F0AEF82148143001F0AAF81F48283060
:102AE00001F0A6F81D483C3001F0A2F81B48503018
:102AF00001F09EF8194870631430B06305E0306847
:102B0000E96AC06A884200D83560706A0121401CB9
:102B100070626864E86A326981401143316100EB98
:102B2000800007EB8000291D01F0A8F801F0EEF805
:102B3000706900280CD03068E96AC06A884207D200
:102B400007494FF080500860BFF34F8FBFF36F8F7E
:102B5000BDE8F0819C00002034030020B405002073
:102B600004ED00E010B501F095F80E4C2068A0B916
:102B70000D4801F05DF80C48143001F059F80A488E
:102B8000E0601430206100221021052001F058FC83
:102B9000206010B105A101F08FF9BDE8104001F0EF
:102BA000B5B80000D800002018060020546D7251FE
:102BB0000000000070B5124E124D1CE001F05AFBEF
:102BC000306820B1002402F05FF8A4B901E00124CC
:102BD000F9E701F05FF8F068C468201D01F016F80D
:102BE000A868401EA8606868401E686001F08EF802
:102BF000204600F052F868680028DFD170BD000060
:102C0000F00500209C00002030B4026C0B46002A26
:102C10000BD0C1681144C1604468A14201D301686E
:102C2000C16030BC1846FDF73DBC30BC70472DE993
:102C3000F041856B174604460026026C82B1C7B18D
:102C4000E068FDF72FFCE168206C091AE16022685A
:102C5000914202D26168081AE060022F16D017E094
:102C60002068A8B9606801F069FF0646002060602E
:102C70000EE0A068FDF716FC216CA0680844A06077
:102C80006168884204D32068A06001E005B16D1E30
:102C90006D1CA5633046BDE8F08110B50446006B9D
:102CA00001F066F82046BDE8104001F061B8000070
:102CB00010484FF43841420706D0C01D0D4920F09E
:102CC0000700411AC1F538410B4A00230144C2E90B
:102CD00000030839103A21F0070111604B600B60C6
:102CE0000B1AC0E9001393604FF000405360D060AE
:102CF000704700004006002008010020074E4FF0FA
:102D00008054074DFFF756FF30680128FAD92C6030
:102D1000BFF34F8FBFF36F8FF4E700003403002041
:102D200004ED00E02DE9F047DDE909840E46174681
:102D3000824691009946089DA522206BFDF729FC4B
:102D40006FF00301206B01EB8701084420F00707B7
:102D5000780705D040F22B3219A11EA0FDF7FCFA2E
:102D600000202218315C82F83410315C11B1401C13
:102D70001028F6D3002684F84360202D00D31F25A9
:102D8000E562C4E91356201D00F05DFF04F1180050
:102D900000F059FF2461C5F120006462A0616665FE
:102DA00084F858604A465146384600F003FB2060DC
:102DB000B8F1000F01D0C8F80040BDE8F08700006E
:102DC0002E2E5C4672656552544F535C7461736B72
:102DD000732E63004572726F723A25732C25640D51
:102DE0000A00000030B5114900E011460A6882422D
:102DF000FBD34B685C18844203D140681844486098
:102E0000084643681C18944209D1084C103C2468B9
:102E1000A24209D052681A4442600A6812680260ED
:102E2000814200D0086030BD0460F9E7080100204D
:102E300070B5002441600B4D0061914206D8D11A53
:102E40008269914206D2011D286907E09A4203D2A5
:102E5000994201D3012403E0011DE86800F0F6FE69
:102E6000204670BDD800002010B5044600F012FFC7
:102E7000A06B20B1002400F049FF204610BD0124C2
:102E8000F9E700002DE9F34100980F460026846C15
:102E90002CB940F6CE1216A11AA0FDF75DFAA06B70
:102EA000E16B884205D340F6CF1211A115A0FDF7C2
:102EB00053FAA06BE16B88420CD294F945503A4624
:102EC00069462046FFF7B3FE0646681C05D06D1C18
:102ED00084F845503046BDE8FC81606A0028F9D08E
:102EE00004F1240001F084FE0028F3D00126F1E76C
:102EF0002E2E5C4672656552544F535C7175657534
:102F0000652E63004572726F723A25732C25640D2D
:102F10000A000000F8B5054614480E46C068C068AF
:102F2000C468201D00F072FEE069012817D1A06975
:102F30002B46411932462046FFF77AFF78B1002030
:102F40000346014600902A46204601F083FF30B92F
:102F500007494FF4027201F11800FDF7FDF9616AAB
:102F600001B02046BDE8F04008470000D80000202E
:102F7000B84D000870B586B02F4E53E00198002878
:102F800006DADDE90301029A90470198002849DB3F
:102F9000039C606910B1201D00F038FE05A800F008
:102FA000A7F8054601980A283CD2DFE800F005059D
:102FB000053B273805053B270298A16903460144D4
:102FC0002A462046FFF734FF00282BD0616A2046AE
:102FD0008847E069012825D1002000900298A16966
:102FE000002342181946204601F034FFD0B940F2C0
:102FF000213212A117A0FDF7AFF913E00298A061EA
:1030000028B94FF44E720DA112A0FDF7A5F9A069E1
:103010002B4641191A462046FFF70AFF02E02046D8
:1030200000F0A6FE00231A4601A9306801F044FA18
:103030000028A3D106B070BDD80000202E2E5C461B
:1030400072656552544F535C74696D6572732E637B
:10305000000000004572726F723A25732C25640DD2
:103060000A000000F8B50D46064601F003F968466F
:1030700000F03EF80446009810B101F005FEF8BDDE
:103080001148ADB101690968D9B10025311B2A4643
:10309000006800F023FF01F0F7FD0028EFD10B4995
:1030A0004FF080500860BFF34F8FBFF36F8FF8BDB4
:1030B000A642EBD801F0E8FD21463046FFF72AFF93
:1030C000F8BD0125E2E70000D800002004ED00E093
:1030D0000648416B096829B1416BC968C9684968EC
:1030E000816270474FF0FF31FAE700009C0000203A
:1030F00070B5054601F0A8FC064E0446B06884424F
:1031000003D200F009F8012000E0002028602046EA
:10311000B46070BDD8000020F8B5184E26E0C06835
:10312000C4680568201D00F071FD616A204688476B
:10313000E06901281AD1A0692844A84206D924616F
:103140006060211DF06800F081FD0FE00020034663
:10315000014600902A46204601F07CFE30B908491D
:1031600040F2923201F11800FDF7F6F8F0680168BC
:103170000029D4D13169C6E90310F8BDD800002078
:10318000B84D000808484068401C05D040F20F12B6
:1031900006A111A0FDF7E0F8502080F31188BFF3DD
:1031A0004F8FBFF36F8FFEE7EC0000202E2E5C46A2
:1031B00072656552544F535C706F727461626C65D6
:1031C0005C525644535C41524D5F434D34465C70F3
:1031D0006F72742E630000004572726F723A25732D
:1031E0002C25640D0A000000084CE068016839B124
:1031F000002139B10020FFF735FFFFF7BBFEF4E7F0
:103200000121F6E7C0680068F5E70000D80000205B
:103210002DE9F041044600F03DFD94F9455004F1DC
:10322000240610E0A06C20B100212046FFF72AFE02
:1032300004E0606A48B1304601F0DAFC08B100F001
:103240000BFF6D1E6DB2002DECDC4FF0FF3684F8E5
:10325000456000F05BFD00F01DFD94F9445004F161
:10326000100709E0206948B1384601F0C1FC08B1F7
:1032700000F0F2FE6D1E6DB2002DF3DC84F84460A8
:10328000BDE8F04100F042BD2DE9F04105460026C1
:1032900000F0F0FF324F386808B9FFF709FDF86811
:1032A00005424FD1002D4DD0083568070BD005F0F1
:1032B0000700C0F108000544680704D0BE2229A118
:1032C00032A0FDF749F8002D3CD07868854239D806
:1032D000234910310846046801E02146044660682D
:1032E000A84202D220680028F7D13868B846844244
:1032F00028D00E682068086060680836401B1028D7
:103300000ED96719780704D0EB2216A11FA0FDF78C
:1033100023F86068401B786038466560FFF762FDFF
:103320006168D8F804004246401AC8F80400D8F88A
:103330000830984200D29060D8F80C000143002079
:10334000C4E9000101F0A0FC700705D040F22B1287
:1033500004A10EA0FDF700F83046BDE8F0810000A2
:10336000F80000202E2E5C4672656552544F535C67
:10337000706F727461626C655C4D656D4D616E67F6
:103380005C686561705F342E630000004572726F87
:10339000723A25732C25640D0A0000000449086860
:1033A00018B10868026D521C026508687047000079
:1033B0009C00002010B5031F4FF080741C601B1F81
:1033C00021F001011960191F044B0B6014390A60C8
:1033D000091F6FF0020244380A6010BD85310008F1
:1033E0001CB500F057FC0F490220CDE90001002375
:1033F00080220DA10F4801F0EDFA0A490320091DB2
:10340000CDE90001002380220BA10E4801F0E2FA71
:103410000448001F006800F0B9FDBDE81C4000F042
:1034200075BC0000940000207461736B315F74619F
:10343000736B0000493400087461736B325F746110
:10344000736B0000AD340008174C4FF47A75D4F854
:10345000800208B30020C4F880023220FFF7B6F8DB
:10346000D4F88002D0B10021C4F880123220FFF7D6
:10347000ADF8D4F8800298B10021C4F8801232204F
:10348000FFF7A4F8D4F8800260B10020C4F88002ED
:10349000284600F045FDDAE70120DCE70121E3E7FB
:1034A0000121EAE70120F1E700004242FF4AA2F1D0
:1034B00010012DED028BA1F11000FFF7D3F89FED65
:1034C000FC8ADFF8F0B3FC4FDFF8F0834FF0010A1D
:1034D0000024F64AA2F11001A1F11000FFF70CFA46
:1034E000F248F74D2038DFF8C4934088A881EF48B0
:1034F00009F11009103800264088E881EB4840881F
:103500002882700400F1C140018829F816100120BA
:10351000FFF778F8761CF6B20A2EF2D3E948008855
:10352000E8820120FFF76EF8E74800882881012033
:10353000FFF768F8E548008828830120FFF762F864
:10354000E3480088DFF86493A9F138094E46A9F8EA
:1035500000000120FFF756F8DE4800887080012047
:10356000FFF750F8DC480088B0800120FFF74AF8E8
:10357000DA480188D24830300180D9490988418031
:10358000D84909888180D8490988C1804188007953
:1035900000F0010041EA004000EE100AB8EE400AD7
:1035A00060EE080A9FEDD11A09F118000C3680EE82
:1035B000810A85ED0A0A90ED020A1030D0ED020A68
:1035C00070EE600A95ED090A60EE800AC5ED0B0AFF
:1035D000B5F90C10B5F90E20891A00EE901AF8EE24
:1035E000E00A20EE800ABDEEC00A10EE101A6982D1
:1035F0004088308095ED080ABD4910EE100A8842D7
:103600000FD810EE100ABB4988420ADADFEDBA0A79
:1036100020EE200AC0EE080ABDEEE00A10EE100A05
:10362000A880B6490878022802D0012807D019E0FE
:10363000B3480C708BF8004004806C7079E1B0499D
:10364000A1F800A00520FEF7DDFFAC488BF800A034
:1036500004700120FEF7D6FFAA48A9780180AA4885
:10366000E9780180A548007803280DD1A449A1F884
:1036700000A00520FEF7C6FF02208BF800009F483F
:1036800004700120FEF7BEFF9C48007804280DD18D
:103690009B49A1F800A00520FEF7B4FF974804213C
:1036A0008BF8001004700120FEF7ACFF93480178FE
:1036B000052908D09BF8000001280AD0022824D050
:1036C000042878D035E18E4A022111808BF800A0C1
:1036D0000470764AB5F904102C3A287800F036F9CF
:1036E000A889E989401AE988401A8849A88270881F
:1036F00008800120FEF786FFF08838800120FEF761
:1037000081FF7189A8F8001013E1687878B3012867
:1037100052D07E49688908800120FEF773FF3C8003
:103720000120FEF76FFFA8F800400120FEF76AFFB6
:103730007449022008800120FEF764FF72490520C9
:1037400008800120FEF75EFFA889E989401AE98810
:10375000401AA882B9F902000A2101EB601014286E
:103760007CD8E869B0F5FA6F7ADAE86979E0FFE7C2
:103770004E4AB5F904102C3A287800F0E7F8A889E9
:10378000E989401AE988401A6049A882708808804F
:103790000120FEF737FFF08838800120FEF732FF66
:1037A0007189A8F80010E869B0F57A6F59DBEC610F
:1037B00085F801A0BDE025E03C4AB5F904102C3A9B
:1037C000287800F0C3F8A889E989401AE988401AE6
:1037D0004E49A882708808800120FEF713FFF08808
:1037E00038800120FEF70EFF7189A8F80010B9F9A2
:1037F00002001430282857D892E07088688102208F
:1038000068708DE0A889E989401AE988401AA88281
:1038100068780028ACD0012826D03C4804800120DC
:10382000FEF7F0FE3C800120FEF7ECFEA8F8004019
:103830000120FEF7E7FE3349032008800120FEF750
:10384000E1FE3149052008800120FEF7DBFEB9F9D1
:103850000210032000EB6110062882D9EC6184E796
:1038600060E0401CE86164E0104AB5F904102C3AAD
:10387000287800F06BF8A889E989401AE988401A8D
:103880002249A882708808800120FEF7BBFEF088DC
:1038900038800120FEF7B6FE7189A8F80010B9F94A
:1038A00002001930322833E033E0000048010020E4
:1038B0000000B4438800002000008460000086609F
:1038C00038000020000094600000966000009860BE
:1038D00000009A6000009C6000009E60000028606C
:1038E00000002A6000002C6000002E6080FFFF476F
:1038F000000034C30000344300FF7F477C000020F9
:1039000000008A600000886000008C600000826017
:1039100006D9E869401CE8610528BFF66EAF08E0EB
:10392000EC6106E06C700748EC61A97801800648FC
:1039300004807088A989081A6883012000F0F0FAD1
:10394000C7E500000000886000008C6070B5144678
:103950002DED068B01229FED990A994D002338B178
:103960002946984E497802287DD000297CD0D3E0A2
:103970006B70B5F90600814207D02A700A1AEA6016
:10398000A880E98085ED040A02E02878002872D03A
:103990008D4A286990426ADC01F030FF9FED8B1B55
:1039A00053EC112B01F0DCFA01F0A8FA064628616D
:1039B000B5F9040001F003FD41EC190BE96801EBD6
:1039C000D170401001F0FBFC41EC180B304601F0C7
:1039D00015FF41EC100BFEF7FFF8E868B0EE40AAC7
:1039E00000EBD0704010F0EE60AA404201F0E7FC1E
:1039F00053EC1A2B01F00EFD53EC182B01F0B0FA2A
:103A000053EC192B01F0ACFA01F0AAFC6080286994
:103A100001F0F4FE41EC100BFEF742F9E868B0EE5D
:103A2000408A00EBD070F0EE608A401001F0C7FCD5
:103A300053EC182B01F0EEFC01F092FCE0802869B9
:103A400001F0DCFE41EC100BFEF7C6F8E868B0EEC2
:103A5000408A00EBD070F0EE608A401001F0AFFCBD
:103A600053EC182BA3E009E052E004E0FFE72B70D1
:103A70006180E3806381BDEC068B70BD21B96A7003
:103A80002B7085ED040AAB702869B04206DD9FED0E
:103A9000510A85ED040A10EE100A0AE001F0AEFEAC
:103AA0009FED4D1B53EC112B01F05AFA01F026FA51
:103AB000286101F0A3FE41EC100BFEF7F1F89FED39
:103AC000488B51EC100B53EC182B01F0A3FC53EC7A
:103AD000182B01F045FA01F043FC6080286901F0E1
:103AE0008DFE41EC100BFEF777F853EC182B51ECE0
:103AF000100B01F08FFC01F033FCE080286901F02D
:103B00007DFE41EC100BFEF7CBF89FED371B4AE032
:103B10006A702B7085ED040A2869B04204DD9FEDC0
:103B2000340A85ED040A0AE001F068FE9FED311BBE
:103B300053EC112B01F014FA01F0E0F92861288907
:103B400001F054FC41EC180B286901F057FE41ECE0
:103B5000100BFEF7A5F89FED299B51EC100B53ECD1
:103B6000192B01F057FC53EC182B01F0F9F901F077
:103B7000F7FB6080286901F041FE41EC100BFEF775
:103B80002BF853EC192B51EC100B01F043FC01F016
:103B9000E7FBE080286901F031FE41EC100BFEF7F5
:103BA0007FF89FED181B51EC100B53EC112B01F01B
:103BB00031FC01F0D5FB60815DE7000000000000F2
:103BC00014000020DA0FC940DA0F4940D1EB2DAFC5
:103BD00065BC693F2DE3CD3BD1EB2DAF65BC793F93
:103BE000000000000000B040000000000000B0C075
:103BF0002DE3CD3AD1EB2DAF65BC593F000000005D
:103C00000000C040000000000000C0C0D0E9013248
:103C100001699A60D0E901235A604A68824201D161
:103C200082684A60002202610868401E086070478E
:103C300000F108014FF0FF32C0E90112C1600161DB
:103C400000210160704700210161704730B50C68A8
:103C5000621C02D000F1080202E0026904E01A4688
:103C600053681D68A542FAD953684B6099608A6011
:103C7000516008610168491C016030BD42684A60BA
:103C800093688B6093685960916008610168491C72
:103C900001607047502080F31188BFF34F8FBFF34E
:103CA0006F8F09494868401C486001280AD10748BD
:103CB000006810F0FF0F05D040F2B91204A10FA068
:103CC000FCF74ABB70470000EC00002004ED00E068
:103CD0002E2E5C4672656552544F535C706F727441
:103CE00061626C655C525644535C41524D5F434D7A
:103CF00034465C706F72742E630000004572726F00
:103D0000723A25732C25640D0A00000010B5084C8A
:103D1000606828B94FF4E07206A111A0FCF71CFB03
:103D20006068401E606001D180F3118810BD000002
:103D3000EC0000202E2E5C4672656552544F535C99
:103D4000706F727461626C655C525644535C415290
:103D50004D5F434D34465C706F72742E63000000FB
:103D60004572726F723A25732C25640D0A000000AB
:103D700070B500282AD0164DA0F108046068E968E3
:103D8000084205D140F23F1212A11CA0FCF7E4FA50
:103D9000206828B14FF4A0720EA118A0FCF7DCFA3D
:103DA0006068E968084211D02268002A0ED1884371
:103DB000606000F05FFA60686968084468602046E7
:103DC000FFF710F8BDE8704000F05EBF70BD000066
:103DD000F80000202E2E5C4672656552544F535CED
:103DE000706F727461626C655C4D656D4D616E677C
:103DF0005C686561705F342E630000004572726F0D
:103E0000723A25732C25640D0A00000006484FF411
:103E10007A710068B0FBF1F14FF0E020491E41617A
:103E200007210161704700000000002010B5FCF779
:103E30006DFA104C10280CD300F1E02090F8F0033C
:103E40002178884205D24FF440720BA115A0FCF7EF
:103E500083FA18480068A16800F4E060884207D936
:103E6000BDE810404FF4447203A10EA0FCF774BAF1
:103E700010BD0000EC0000202E2E5C4672656552DD
:103E8000544F535C706F727461626C655C5256443F
:103E9000535C41524D5F434D34465C706F72742EDB
:103EA000630000004572726F723A25732C25640D11
:103EB0000A0000000CED00E010B5074B002253F89B
:103EC00032401CB1521C082AF9D310BD43F83210FD
:103ED00003EBC201486010BDF402002070B5154626
:103EE0000E460446FFF7D6FE94F944100020491C04
:103EF00001D184F8440094F94510491C01D184F89B
:103F00004500FFF703FFA06B28B92A46314604F1AC
:103F1000240000F0D1F82046BDE87040FFF778B9E2
:103F200010B5040012D00E49096B29B140F2CF42FE
:103F30000CA111A0FCF710FA00F09CF9002120461A
:103F4000FEF770FD00F0A0FE002807D10E494FF0EB
:103F500080500860BFF34F8FBFF36F8F10BD00001C
:103F60009C0000202E2E5C4672656552544F535CB7
:103F70007461736B732E63004572726F723A2573AE
:103F80002C25640D0A00000004ED00E070B5044625
:103F9000FFF780FE234D04B92C68201DFFF736FE85
:103FA00058B9E06A204A00EB800152F8211021B98B
:103FB00001218140286988432861A06A18B104F171
:103FC0001800FFF723FE686A401C68622868844274
:103FD00007D1211D1548FFF751FE6868401C686035
:103FE00007E0A868401EA8602046FEF756FEFFF7CF
:103FF0006FF8FFF78BFE6869002812D028688442AA
:104000000FD1286B28B140F2654209A10DA0FCF741
:10401000A3F910494FF080500860BFF34F8FBFF3F2
:104020006F8F70BD9C00002034030020F00500203D
:104030002E2E5C4672656552544F535C7461736BEF
:10404000732E63004572726F723A25732C25640DCE
:104050000A00000004ED00E001490120C86170473A
:104060009C00002070B50D46040005D140F60632D4
:1040700007A10CA0FCF770F90E4801682046183122
:10408000FFF7E4FD2846BDE870400121FEF7CABCF9
:104090002E2E5C4672656552544F535C7461736B8F
:1040A000732E63004572726F723A25732C25640D6E
:1040B0000A0000009C00002070B514460E46050062
:1040C00005D140F6313209A10DA0FCF745F91048A1
:1040D000016828461831FFF7D1FD0CB14FF0FF36CB
:1040E00021463046BDE87040FEF79CBC2E2E5C4653
:1040F00072656552544F535C7461736B732E630029
:104100004572726F723A25732C25640D0A00000007
:104110009C00002070B5040039D01D4DE06A29686C
:10412000C96A884233D2A069002804DB2868C06AC3
:10413000C0F12000A061E06A164E00EB80006169CA
:1041400006EB800081421FD1201DFFF75FFD01219A
:1041500050B9E06A00EB800256F8222022B92A69A1
:1041600001FA00F082432A612868C06AE0622A6985
:1041700081401143296100EB800006EB8000211D86
:10418000BDE87040FFF77ABD2868C06AE06270BD84
:104190009C0000203403002010B5040005D140F637
:1041A000C13205A109A0FCF7D7F80C48016A2160CB
:1041B000C068606010BD00002E2E5C4672656552BE
:1041C000544F535C7461736B732E63004572726F4E
:1041D000723A25732C25640D0A0000009C00002013
:1041E0001CB517480024CDE900402346822215A1C2
:1041F000164800F0EFFB012803D100F0F1FD012883
:104200000AD0401C1BD102B040F28472BDE81040BD
:104210000FA114A0FCF7A0B8502080F31188BFF3C1
:104220004F8FBFF36F8F06484FF0FF312C388162FC
:1042300001214161C460BDE81C4000F061B81CBDB3
:10424000C800002049444C4500000000FD2C000837
:104250002E2E5C4672656552544F535C7461736BCD
:10426000732E63004572726F723A25732C25640DAC
:104270000A0000000248016B491C016370470000FE
:104280009C00002070B5134D286B10B10120E8612F
:1042900070BD0020E86128690F4EB0FA80F0C0F1CF
:1042A0001F0000EB800456F8240028B940F6F622DF
:1042B0000AA10FA0FCF750F806EB840000F10802F9
:1042C000416849684160914201D149684160C868CC
:1042D000286070BD9C000020340300202E2E5C4618
:1042E00072656552544F535C7461736B732E630037
:1042F0004572726F723A25732C25640D0A00000016
:104300001CB5304C20683049884205D140F2591222
:104310002EA139A0FCF720F820682B49491E8842BD
:1043200005D14FF4AD7229A133A0FCF715F8364C36
:1043300020780190FF20207020788DF800009DF8F3
:1043400000009DF8001000F0F000884205D040F217
:1043500073121EA128A0FBF7FFFF9DF800002B4A57
:1043600000F0500010700720906007E09068401E39
:1043700090609DF8000040008DF800009DF800005E
:104380000006F3D4107A000200F4E0609060019817
:1043900020700C482030016841F470010160016810
:1043A00041F070410160FFF731FD00205060FBF7E4
:1043B00075FF1748016841F040410160FBF75EFF5F
:1043C00000201CBD00ED00E071C20F412E2E5C46A6
:1043D00072656552544F535C706F727461626C65A4
:1043E0005C525644535C41524D5F434D34465C70C1
:1043F0006F72742E630000004572726F723A2573FB
:104400002C25640D0A00000000E400E0EC00002010
:1044100034EF00E010B5502080F31188BFF34F8FC8
:10442000BFF36F8F00F016FB18B104494FF08050B6
:104430000860002080F3118810BD000004ED00E04A
:104440002DE9F04117460E46050005D14FF4C47220
:1044500010A115A0FBF780FFBEB105FB06F054309C
:10446000FEF712FF04000ED004F154007EB120606C
:10447000C4E90F562046012100F0E0F884F850709E
:1044800000212046A164BDE8F0810020E7E7246018
:10449000EEE700002E2E5C4672656552544F535C69
:1044A00071756575652E63004572726F723A25737A
:1044B0002C25640D0A0000002DE9FF4F83B09B46B8
:1044C0008A4604004FF0000605D140F2DC4251A1BB
:1044D00055A0FBF741FFBAF1000F07D1206C28B1BE
:1044E00040F2DD424BA150A0FBF736FF00F09EFAF0
:1044F00038B9059828B14FF49C6246A14AA0FBF751
:104500002BFF4FF000094FF08057DFF82C81FFF7A9
:10451000C1FBA56B45B351462046E668FEF774FB28
:10452000BBF1000F13D0E660606A50B104F12400C3
:1045300000F05EFB28B1C8F80070BFF34F8FBFF3E7
:104540006F8FFFF7E3FB012007B0BDE8F08F6D1E12
:10455000A563206810B9FEF721FF6060206900287C
:10456000EFD004F11000E3E7059808B11EB106E0B2
:10457000FFF7CCFB27E06846FFF70EFE0126FFF7AA
:10458000C5FBFFF777FEFFF785FB94F94400401C5D
:1045900001D184F8449094F94500401C01D184F87D
:1045A0004590FFF7B3FB05A9684600F0CFF9002856
:1045B00020460AD0FEF72CFE00F066FB2046FEF7F0
:1045C00053FC0028A3D00020BEE7FEF74DFCD8B175
:1045D000206830B9FFF75EFB6068FFF79BFDFFF7CF
:1045E00095FB04F124000599FFF73CFD2046FEF7FA
:1045F0000FFE00F049FB002889D1C8F80070BFF316
:104600004F8FBFF36F8F82E72046FEF701FE00F069
:104610003BFB7CE72E2E5C4672656552544F535C23
:1046200071756575652E63004572726F723A2573F8
:104630002C25640D0A00000004ED00E070B50D4665
:10464000040005D140F21B121CA121A0FBF784FE3F
:10465000FFF720FBD4E90F20216802FB0011616005
:104660000021A1632168A1600A46D4E90F01401E20
:1046700000FB0121E16021464FF0FF3001F8440FBB
:10468000487004F110004DB1FFF7D2FA04F1240094
:10469000FFF7CEFAFFF73AFB012070BD2169002930
:1046A000F8D000F0A5FA0028F4D00D494FF0805062
:1046B0000860BFF34F8FBFF36F8FEBE72E2E5C4682
:1046C00072656552544F535C71756575652E630054
:1046D0004572726F723A25732C25640D0A00000032
:1046E00004ED00E02DE9FF4F83B099468B460400AE
:1046F0004FF0000605D140F2D92252A156A0FBF797
:104700002BFEBBF1000F07D1206C28B140F2DA225A
:104710004CA151A0FBF720FEB9F1020F08D1E06BCC
:10472000012805D040F2DB2246A14BA0FBF714FE86
:1047300000F07CF938B9059828B140F2DE2241A199
:1047400045A0FBF709FE4FF0000A4FF08057DFF855
:104750001881FFF79FFAA06BE16B884206D3B9F18D
:10476000020F03D0059800B316B325E04A46594618
:104770002046FEF75CFAA16C21B149462046FEF7BF
:1047800081FB05E0616A19B104F1240000F030FA00
:1047900028B1C8F80070BFF34F8FBFF36F8FFFF7DA
:1047A000B5FA012007B0BDE8F08FFFF7AFFA21E0BE
:1047B0006846FFF7F1FC0126FFF7A8FAFFF75AFD5C
:1047C000FFF768FA94F94400401C01D184F844A032
:1047D00094F94500401C01D184F845A0FFF796FAF2
:1047E00005A9684600F0B2F830B12046FEF710FD8A
:1047F00000F04AFA0020D5E7FFF74CFAA06BE16B16
:10480000884201D1012500E00025FFF77FFA95B12C
:1048100004F110000599FFF725FC2046FEF7F8FC8F
:1048200000F032FA002894D1C8F80070BFF34F8F1F
:10483000BFF36F8F8DE72046FEF7EAFC00F024FA05
:1048400087E700002E2E5C4672656552544F535C1C
:1048500071756575652E63004572726F723A2573C6
:104860002C25640D0A00000004ED00E02DE9F0475E
:10487000984615468946040005D140F29F322AA188
:104880002EA0FBF769FDB9F1000F07D1206C28B10C
:104890004FF4687224A129A0FBF75EFDB8F1020F66
:1048A00008D1E06B012805D040F2A1321EA123A05F
:1048B000FBF752FDFFF7BAFA5020EFF3118780F3B0
:1048C0001188BFF34F8FBFF36F8FA06BE16B8842EE
:1048D00007D3B8F1020F04D0002087F31188BDE898
:1048E000F08794F94560424649462046FEF79FF915
:1048F000701C04D0761C84F845600120EDE7A06CA4
:10490000012620B141462046FEF7BCFA06E0606A67
:104910000028F2D004F1240000F06AF90028ECD05D
:10492000002DEAD02E60E8E72E2E5C4672656552B7
:10493000544F535C71756575652E63004572726FD7
:10494000723A25732C25640D0A00000070B50D46DF
:10495000040005D140F6CB3214A119A0FBF7FCFCF2
:104960002DB940F6CC3211A115A0FBF7F5FCFFF7ED
:1049700091F9174AD06829684B1C0FD02368126A36
:10498000934202D0626882420AD96268801A8842E1
:1049900006D2081A28602046FFF7FEFB002400E03C
:1049A0000124FFF7B3F9204670BD00002E2E5C46AF
:1049B00072656552544F535C7461736B732E630060
:1049C0004572726F723A25732C25640D0A0000003F
:1049D0009C0000202DE9FF5F8346DDE90E879946A4
:1049E00016468A469000FEF74FFC05001AD05C2060
:1049F000FEF74AFC040012D025630021CDE90241F4
:104A0000CDE900874B46324651465846FEF78AF9B3
:104A10002046FEF73FF8012004B0BDE8F09F28468D
:104A2000FFF7A6F94FF0FF30F6E7000005484169AF
:104A300019B1006B18B100207047012070470220A7
:104A4000704700009C0000200148C06870470000CB
:104A50009C0000202DE9F0412D4F0026386B40B11D
:104A6000B869401CB861F86900B101263046BDE85C
:104A7000F081FD686D1CFD6011D1786B006828B174
:104A800040F6D91223A128A0FBF766FC786BB96B1E
:104A90007963B863386A401C3862FEF719FBB86A5C
:104AA000DFF89480854209D3786B006880B1786B19
:104AB000C068C468606885420DD2B8623868C06A50
:104AC00000EB800158F821000128CCD90126CAE763
:104AD0004FF0FF30F1E7201DFFF798F8A06A18B1FA
:104AE00004F11800FFF792F8E06A01213A69814069
:104AF0001143396100EB800108EB8100211DFFF7B4
:104B0000BDF8E06A3968C96A8842CDD30126CBE78F
:104B10009C0000202E2E5C4672656552544F535CFB
:104B20007461736B732E63004572726F723A2573F2
:104B30002C25640D0A0000003403002070B5040029
:104B40004FF000063CD01F4D2868844205D040F647
:104B5000C7621DA121A0FBF7FFFB206D28B940F61D
:104B6000C96219A11DA0FBF7F7FB206D401E20654F
:104B7000E26CE16A914223D010BB201DFFF746F89A
:104B80001A49012250B9E06A00EB800351F8233042
:104B900023B92B6902FA00F083432B61E06CE062D9
:104BA000C0F12000A061E06A2B6982401A432A61AB
:104BB00000EB800001EB8000211DFFF75FF801266C
:104BC000304670BD9C0000202E2E5C4672656552FA
:104BD000544F535C7461736B732E63004572726F34
:104BE000723A25732C25640D0A000000340300205E
:104BF0002DE9F041C068C4682CB940F6613216A1B5
:104C00001AA0FBF7A9FB04F118000746FEF7FEFF08
:104C10001A4D286B012660B139461948FFF72EF866
:104C2000E06A2968C96A884213D90120EE61BDE8AB
:104C3000F081201DFEF7EAFFE06A2A6906FA00F11A
:104C4000114329610F4900EB800001EB8000211D19
:104C5000E4E70020EBE700002E2E5C46726565520B
:104C6000544F535C7461736B732E63004572726FA3
:104C7000723A25732C25640D0A0000009C00002068
:104C8000DC050020340300202DE9F0472B4D0024E3
:104C90002746286B28B94FF4FD6229A12DA0FBF708
:104CA0005BFBFEF7F7FF286B401E2863286BE8BB11
:104CB000A8682C490126C8B3A1F52A798846D8F8F6
:104CC0000010E9B1D8F80C00C46804F11800FEF730
:104CD0009DFF201DFEF79AFFE06A2A6906FA00F19F
:104CE0001143296100EB800109EB8100211DFEF7D2
:104CF000C5FFE06A2968C96A8842E0D3EE61DEE751
:104D00000CB1FEF7E5F9AC693CB1FFF7A3FE00B1C9
:104D1000EE61641EF9D10020A861E86930B1124942
:104D2000012738070860BFF34F8F00E001E0BFF3B1
:104D30006F8FFEF7EBFF3846BDE8F0879C00002040
:104D40002E2E5C4672656552544F535C7461736BD2
:104D5000732E63004572726F723A25732C25640DB1
:104D60000A000000DC05002004ED00E02DE9F0471A
:104D70000746994616460D462C20DDF820A0FEF782
:104D800083FA040014D0B8464F46D1462DB94FF4EB
:104D9000C67209A10EA0FBF7DFFAFDF7E3FE04F1EE
:104DA0001801C4F8008081E8E002201DFEF74BFFE7
:104DB0002046BDE8F08700002E2E5C4672656552E5
:104DC000544F535C74696D6572732E63000000006C
:104DD0004572726F723A25732C25640D0A0000002B
:104DE0001CB50024FDF7BEFE0C48006868B10B49F5
:104DF0001F20091DCDE9000100234FF4827208A194
:104E00000948FFF7E7FD040005D140F2331207A17E
:104E10000CA0FBF7A1FA20461CBD0000D800002022
:104E2000546D722053766300E93100082E2E5C46E3
:104E300072656552544F535C74696D6572732E636D
:104E4000000000004572726F723A25732C25640DC4
:104E50000A0000002DE9FF47DDF830A09946904692
:104E60000D4606004FF0000705D14FF4D37212A192
:104E700017A0FBF771FA1A4C206880B1CDE90058F1
:104E80000296062D11DAFFF7D1FD02284FF000033C
:104E900009D0002269462068FFF724FC074604B0C9
:104EA0003846BDE8F0875246F4E700234A46694693
:104EB000FFF7DCFCF2E700002E2E5C4672656552BF
:104EC000544F535C74696D6572732E63000000006B
:104ED0004572726F723A25732C25640D0A0000002A
:104EE000D800002081F00041704780F000407047FA
:104EF00021F00041704720F00040704721F000424F
:104F0000A2F16052B2F5801F01F0004328BFD2F138
:104F10007F6C0BD95FEA001C43EAC20242EB50707F
:104F200018BF704728BF20F001007047B2F5801FFE
:104F3000BCBF184670474FEA410C1CF5001F02D257
:104F4000084600F0D1BC70B500F00EFB00000089EF
:104F5000FFF7F6BF4FF00040A0F58000704700005B
:104F600010B591EA030F48BF83F0004300F164835A
:104F7000841A71EB030C05D2121943EB0C03001BCE
:104F800061EB0C01DFF824E14FEA1154A4EB135C50
:104F90001EEA430F18BF9EEA445F73D023EA0E0354
:104FA000DCF1200E21EA045143F4801332D322FABB
:104FB0000CFE10EB0E0023FA0CFE41EB0E01CCF1BF
:104FC000200E03FA0EFE10EB0E0051F10001B1F5B8
:104FD000801FCCF1200E32D201EB045112FA0EF2F6
:104FE000BDE8104058BF7047401C38BF5FEA42021E
:104FF00018BF7047002814BF20F0010041F10001E4
:105000004FEA410313F5001F38BF7047A1F1C041BB
:1050100000F0F8BA012A43EB0302ACF1200CDCF1FA
:105020001F0E32BF4FF0000E23FA0CF310EB0300FB
:1050300041EB0451B4EB115FD0D0A1EB045101F569
:10504000801149085FEA300001EB04510ED350F1A2
:10505000000038BF12FA0EFE08D1BDE81040C9E7C3
:10506000401C38BF5FEA4202CAD1C3E7BDE8104026
:105070004FEA410313F5001F38BF7047A1F1C0414B
:1050800000F0C0BA9EEA445F08D011EA5E0FBDE8A6
:10509000104004BF01F0004100207047BDE81040FF
:1050A00070B500F061FA00BF64FBBE3E0000E0FF97
:1050B0002DE9C04130B4DFF8A0C23CEA111418BF9A
:1050C0003CEA131400F0EC8081EA03051CEA111499
:1050D00044EAD57418BF1CEA131500F0C780A4EB8E
:1050E00005044FF0004545EAC12145EAC32341EAE2
:1050F000505143EA525304F17F74994204F500344D
:105100004FEAC0204FEAC22208BF904200F09C80C4
:105110004FEA13650FF24016765D4FEA134506FB22
:1051200005F7C7F1807706FB07F74FEAD737A7FBEC
:1051300003687642C8F58038A7FB06CE38BFA8F1D1
:10514000010807FB08E64FF0000EA6FB028CE6FB09
:1051500003CEDCF1000CCEF1004E38BFAEF1010EF3
:10516000A6FB0C584FF000074FF00005E6FB0E873A
:10517000A1FB08C6A0FB07CE16EB0E0645F1000505
:10518000E1FB076515F1E04E7EBFA4F580345FEAD0
:1051900046066D4116F1800745F100054FEA1727D5
:1051A0004FEA066647EA0567A6F1DE46B6F1805F7C
:1051B0004FEA15251FD9384624F0010C05EBC471C0
:1051C000BCF1FE6F01EB0C1102D8F0BCBDE8008110
:1051D00024425CBF01F5801E9EEAC47F02D4F0BC6D
:1051E000BDE80081244238D4F0BCA1F1C041BDE843
:1051F000004100F007BA4FEAD22242EA43524FEA96
:10520000D323A7FB02864FEAD02040EA415007FB98
:1052100003661EEA0E0F4FEAD12105FB026658BF56
:10522000A6EB0056B6EB00564FEA520E4EEAC37E8E
:1052300018EB0E0E56EB530EBDD518EB02085E416F
:105240007F1C55F10005B6E74FF480154FF00007BD
:105250004FF000064FF00008ADE7F0BC4FF0000043
:1052600001F1C04101F00041BDE8008111EA0C1FCD
:105270000CEA131500D00CE013EA0C1F00F0258097
:105280004FF00000F0BC81EA030101F00041BDE8ED
:105290000081F0BCBDE8004181EA030100F0B2B931
:1052A000F0BCBDE8004170B500F05EF9097EFC3E3F
:1052B00000F007B881EA03014FF0000001F000415F
:1052C000704781EA030100F09DB9F0BCBDE80041E0
:1052D0004FF0000021497047FFFDFBF9F7F5F4F2AC
:1052E000F0EEEDEBE9E8E6E4E3E1E0DEDDDBDAD881
:1052F000D7D5D4D3D1D0CFCDCCCBCAC8C7C6C5C4DF
:10530000C2C1C0BFBEBDBCBBBAB9B8B7B6B5B4B3F5
:10531000B2B1B0AFAEADACABAAA9A8A8A7A6A5A4E0
:10532000A3A3A2A1A09F9F9E9D9C9C9B9A999998A4
:105330009797969595949393929191908F8F8E8E47
:105340008D8C8C8B8B8A89898888878786858584D4
:1053500084838382828181800000FF070000F87FC0
:105360004FEA41034FEA5353A3F58063D3F11E0381
:10537000C8BFD3F1210C0CDD4FF0004242EAC1223C
:1053800042EA505232FA03FC8CEAE17CACEBE17069
:105390007047102BC4BF0020704703F5787CBCF128
:1053A000FF3F04D06FF0004282EA2100704770B5E1
:1053B00000F0DAF84992248000207047F2E710F0FC
:1053C000004248BF4042B0FA80F310FA03F10AD01D
:1053D000C3F11D0303F580634FEA415002EB035212
:1053E00002EBD12170474FF000007047B0FA80F314
:1053F00010FA03F10AD0C3F11D0303F580634FEAED
:1054000041504FEA035202EBD12170474FF00000A8
:1054100070470000DFF848C170B51CEA111E1EBFBE
:105420001CEA13159EEA0C0F95EA0C0F00F06F8032
:1054300081EA030423EA4C134EEAD47E21EA4C119C
:1054400041F4801143F48013AE44A1FB024CA0FB55
:105450000365AEF17F7E361955EB0C05A1FB034CBD
:105460004CF10003A0FB021C16EB0C06654153F146
:105470000003094218BF46F0010613F4007F0BD168
:105480004FEA03314FEA0530340341EA155140EA4F
:1054900016506FF003020AE04FEAC3214FEAC5201D
:1054A000F40241EA555140EA56506FF0020202EB15
:1054B0002E4201EB025585EACE710AD05FEA440C18
:1054C00018BF24F0004450F1000041F1000120EA2F
:1054D000D47040F2FE7C624500D270BDA84214BF79
:1054E0004FF080444FF04044002E08BF0024BEF12E
:1054F000806FA8BFA1F1C041BDE8704080F28280FA
:105500004FF0000001F1C04101F0004170479EEAF8
:105510000C0F0CEA131518BF95EA0C0F06D04FF0CC
:10552000000081EA030E0EF0004170BD00F01CF88F
:105530008900013E00F007B800F009B84FEA430CBB
:105540005FEA5C5C08D081EA030100F05BB84FEAD7
:10555000410C5FEA5C5CF6D14FF0000001497047F6
:105560000000FF070000F87F0EF1020E2EF0030E80
:105570005EF8046B364205D4012A43EB030515F5AA
:10558000001F12D8012841EB010C1CF5001F0CD89C
:105590000ED14FEAD17C15F5001F0CEB4C0C0CF131
:1055A000020C08BF4CEBD37C04E04FF0080C01E088
:1055B0004FEAD37C0CEB4C0526FA05F606F00706FD
:1055C000B6F1040C06D20EEB860CBDE870404CF030
:1055D000010C6047DFE80CF0090B02024FF00041BC
:1055E0004FF00000A1F5002170BD194610460128BA
:1055F00051EB010418BFD4F5001484BF002001F062
:10560000004170BD0808A0F500114FEA3101704754
:1056100091EA030F10B581F000413FF5A9AC83F08A
:10562000004300F009B8000010B591EA030F48BF2D
:1056300083F000433FF59CAC841A71EB030C07D256
:1056400012198CF0004C43EB0C03001B61EB0C01B6
:10565000DFF8A4E14FEA1154A4EB135C1EEA430FF8
:1056600018BF9EEA445F00F0B08023EA6E03524206
:1056700021EA0451C3EB6E0338BF5B1EDCF1200E40
:1056800025D322FA0CFE10EB0E0043FA0CFE41EB80
:105690000E01CCF1200E03FA0EFE10EB0E0051F1BC
:1056A0000001CCF1200E29D412FA0EF201EB0451C4
:1056B000BDE8104058BF7047401C1CBFB2F1004FFE
:1056C000704700280CBF491C20F00100704712EB06
:1056D000020E43EB030218BF4FF0010E4EEA4202E6
:1056E000ACF1200CDCF11E0E54D943FA0CFE10EB89
:1056F0000E0051F1FF31CCF11E0ED5D50EF1010E89
:1057000012FA0EFE404141EB010101EB445C5FEAFD
:105710005C5C10D910EBDE7001EB045138BFBEF1B8
:10572000004FBDE8104018BF704700280CBF491C4F
:1057300020F00100704730D24FEAD42C11F500114F
:1057400024F400641BD0B1FA81F20B3AA41AA41E0F
:10575000D2F12003914030FA03F31943904001EB5A
:10576000CC71002C01EB0451BDE81040A8BF70477C
:1057700001F1C0414FF0000001F000417047B0FA64
:1057800080F310FA03F100D110BDE41A173C48056C
:10579000C90AE4E701EB045110BD491001EB0451C3
:1057A000BDE810404FEA300002E04FF000017047C2
:1057B0004A0008BF0042F8D0B2F5001F28BF70476A
:1057C00001F000414FF0000070479EEA445F07D0AF
:1057D00011EA5E0FBDE8104004BF002100207047B1
:1057E000BDE8104070B5FFF7BFFE00BF40DFF63EDA
:1057F00083F00041104670470000E0FF43004FEA8D
:10580000D30C4FEA3C0C43401FBF40070CF16051E2
:1058100013F0FE4F70471CF0006F03D100200CF016
:10582000004170470CF0004343EA507010B540EA65
:10583000CC0000F00EF800BF000000924FEA00011B
:10584000FFF7E0BE4FF000414FF00000A1F500214E
:1058500070470EF1020E2EF0030E5EF8044B244248
:1058600004D44FEA4102B2F17F4F11D84FEA40030E
:10587000B3F17F4F0CD80ED14FEAD07CB2F17F4FFD
:105880000CEB4C0C0CF1020C08BF4CEBD17C04E08F
:105890004FF0080C01E04FEAD17C0CEB4C0324FAEA
:1058A00003F404F00704B4F1040C06D20EEB840CEC
:1058B000BDE810404CF0010C6047DFE80CF0070831
:1058C00002024FF00040A0F5800010BD08464200E3
:1058D00018BFD2F1807288BF00F0004010BD4FF0B9
:1058E0004070E1EE100A7047FF2141EAD050C00538
:1058F00070470000000001020304010203040607D0
:1059000008090000000000004C5555555555A53FAD
:105910007751C1166CC156BF9015CB19A001FA3E44
:10592000AD529C804F7E92BEC4B1B4BD9EEE213E6E
:10593000D43888BEE9FAA8BD00004054FB21F93FE5
:105940003163621A61B4D03D0000601A61B4D03D89
:105950007370032E8A19A33B0000002E8A19A33B03
:10596000C14920259A837B39000000000000000017
:105970006E83F9A22915444ED15727FCC0DD34F5BA
:10598000999562DB4190433CAB6351FE61C5BBDE40
:105990003A6E24B7E0D24D42EA2E49061C92D10954
:1059A0001CEB1DFE3EA729B1F53582E88444BB2ED1
:1059B00026709CE9417E5FB439D69139F43953831E
:1059C0008B5F849C3B28F9BDFF97F81F0F9805DE7D
:1059D0008B112FEF1F6D0A5ACF7E366DB709CB277B
:1059E000663F464F2DEA5F9EC7BA27757BF1E5EB10
:1059F000F739073DEA92528AB15FFB6B085D8D1F54
:105A0000A6F810111111813FD561C119A0012ABF5B
:105A10007DFEB157E31DC73EEB9C2B8AE6E55ABEDF
:105A20007CD5CF5A3AD9E53D485A000800000020FD
:105A300010010000E8010008585B00081001002078
:105A400090C30000040200080024F40000000000DD
:105A5000000000000102030406070809000000011D
:105A60000000FFFF00000000000000000000000038
:105A700000000000123261113161853D9BB70000CA
:105A80000000000100000000000000000000000015
:105A90000000000000000000000000000000000006
:105AA000000000000000803F000000000000000037
:105AB00000000000000000000000000000000000E6
:105AC00000000000000000000000000000000000D6
:105AD00000000000B92700080000000000000000DE
